{
  "contractName": "Election",
  "abi": [
    {
      "inputs": [],
      "payable": false,
      "stateMutability": "nonpayable",
      "type": "constructor"
    },
    {
      "constant": true,
      "inputs": [],
      "name": "candidate",
      "outputs": [
        {
          "internalType": "string",
          "name": "",
          "type": "string"
        }
      ],
      "payable": false,
      "stateMutability": "view",
      "type": "function"
    }
  ],
  "bytecode": "0x608060405234801561001057600080fd5b506040518060400160405280600b81526020017f43616e64696461746520310000000000000000000000000000000000000000008152506000908051906020019061005c929190610062565b50610107565b828054600181600116156101000203166002900490600052602060002090601f016020900481019282601f106100a357805160ff19168380011785556100d1565b828001600101855582156100d1579182015b828111156100d05782518255916020019190600101906100b5565b5b5090506100de91906100e2565b5090565b61010491905b808211156101005760008160009055506001016100e8565b5090565b90565b610186806101166000396000f3fe608060405234801561001057600080fd5b506004361061002b5760003560e01c80636c8381f814610030575b600080fd5b6100386100b3565b6040518080602001828103825283818151815260200191508051906020019080838360005b8381101561007857808201518184015260208101905061005d565b50505050905090810190601f1680156100a55780820380516001836020036101000a031916815260200191505b509250505060405180910390f35b60008054600181600116156101000203166002900480601f0160208091040260200160405190810160405280929190818152602001828054600181600116156101000203166002900480156101495780601f1061011e57610100808354040283529160200191610149565b820191906000526020600020905b81548152906001019060200180831161012c57829003601f168201915b50505050508156fea265627a7a7231582095de502d4cf01ecae0c6d7473185c102e4d19df22ae0b36699daae9c03e4108a64736f6c63430005100032",
  "source": "pragma solidity ^0.5.16;\t// this is version of solidity we are using\r\n\r\ncontract Election{\r\n\t// Store candidate\r\n    // Read candidate\r\n    string public candidate;\r\n \t// candidate is 'state variable' and it's something that's\r\n    // going to e accessible inside of our contact and is going\r\n    // to represent data that belongs to our entire contact\r\n\r\n\r\n    // Constructor, he is going to get run whenever we deploy our\r\n    // contract to the blockchain, and because of that we set public\r\n    constructor() public {\r\n    \tcandidate = \"Candidate 1\";\r\n    }\r\n\r\n}",
  "sourcePath": "C:\\Users\\Vaxi\\Desktop\\BlockchinProgramming\\election\\contracts\\Election.sol",
  "compiler": {
    "name": "solc",
    "version": "0.5.16+commit.9c3226ce.Emscripten.clang"
  },
  "schemaVersion": "3.1.0",
  "updatedAt": "2020-04-14T12:07:34.220Z",
  "networkType": "ethereum",
  "devdoc": {
    "methods": {}
  },
  "userdoc": {
    "methods": {}
  }
}